:100000000C9472000C9493000C9493000C94930045
:100010000C9493000C9493000C9493000C94930014
:100020000C9493000C9493000C9493000C94930004
:100030000C9493000C9493000C9493000C949300F4
:100040000C9493000C9493000C9493000C949300E4
:100050000C9493000C9493000C9493000C949300D4
:100060000C9493000C9493000C9493000C949300C4
:100070000C9493000C9493000C9493000C949300B4
:100080000C9493000C9493000C9493000C949300A4
:100090000C9493000C9493000C9493000C94930094
:1000A0000C9493000C9493000C9493000C94930084
:1000B0000C9493000C9493000C9493000C94930074
:1000C0000C9493000C9493000C9493000C94930064
:1000D0000C9493000C9493000C9451010C94930095
:1000E0000C94930011241FBECFEFD1E2DEBFCDBF31
:1000F00000E00CBF12E0A0E0B2E0E0EEF6E000E0CD
:100100000BBF02C007900D92A030B107D9F712E0E3
:10011000A0E0B2E001C01D92A233B107E1F70E9456
:100120000E030C946E030C94000084B1876084B9B4
:1001300085B1876085B9089510BA11BA1092070188
:10014000109208010895EAE7F0E0108210927B0017
:1001500080E280937C0080E880BF86E880830895F9
:1001600083E58CBD1DBC1EBC089528988EBD0DB4C2
:1001700007FEFDCF86E69EE00197F1F7000080E5DF
:100180008EBD0DB407FEFDCF8EB5289A0895883038
:1001900018F098E090937B008770806280937C00D9
:1001A000EAE7F0E0808180648083808184FFFDCF76
:1001B00080917900EAE7F0E090819061908310925D
:1001C0007B0008953B9A4398089581B18F6081B96F
:1001D00082B1807F82B9EAE0F1E08081886180832A
:1001E000EBE0F1E08081886180830895E1E2F1E055
:1001F00010828FEF8093250191E09093240110925B
:1002000029018093280110922B0180932A011092DA
:100210002D0180932C0189EA809320018BE080835B
:1002200008958093280160932A01089592B1907FE8
:100230008F70982B92B9089586E00E941601089558
:1002400089E00E941601089585E00E941601089534
:100250008AE00E941601089580E00E941601089528
:1002600086B1886088B9089586B1877F88B9089576
:10027000E1E3F1E010821092300186E080933201D8
:100280008FE5809334011092350188ED80830895C5
:100290000E94E5000E94E2000E949C000E949500DE
:1002A00008951F920F920FB60F920BB60F92112462
:1002B0002F933F934F935F936F937F938F939F936E
:1002C000AF93BF93EF93FF932091360120932902C0
:1002D00080910E0290910F028130910571F420936C
:1002E000010289E780932902809110029091110206
:1002F0000196909311028093100280910C029091CC
:100300000D0281309105A9F48091290280930102A8
:1003100080910102880F809301028AE7809329026D
:1003200080910A0290910B02019690930B028093A8
:100330000A0280910602909107028130910581F4B2
:10034000809129028093000281E4809329028091A8
:100350000802909109020196909309028093080285
:10036000809104029091050281309105A9F4809159
:1003700029028093000280910002880F809300027E
:1003800082E48093290280910202909103020196F7
:10039000909303028093020280912902813611F426
:1003A0000E941C0180912902823611F40E942001D2
:1003B00080912902833611F40E9424018091290240
:1003C000843611F40E94280180912902853611F4A7
:1003D0000E942C0180912902863611F40E9430017E
:1003E00080912902873611F40E94340180912902FC
:1003F000883621F480911C02809336018091290275
:10040000893621F480912702809336018091290258
:100410008A3621F480911B02809336018091290253
:100420008B3621F48091200280933601809129023D
:100430008C3621F480912D0280933601809129021F
:100440008D3621F480912802809336018091290213
:100450008E3621F480911D0280933601809129020D
:100460008F3621F4809124028093360180912902F5
:10047000803721F480911F028093360180912902F8
:10048000813721F4809131028093360180912902D5
:10049000823721F4809121028093360180912902D4
:1004A000833721F4809130028093360180912902B4
:1004B000843721F480912F028093360180912902A4
:1004C000853721F480911A028093360180912902A8
:1004D000863721F480912A02809336018091290287
:1004E000873721F48091260280933601809129027A
:1004F000883721F480912C02809336018091290263
:100500008937A9F481E090E090930F0280930E0266
:1005100080911002909111028130910541F4109266
:100520000F0210920E02109211021092100280918E
:1005300029028A37A9F481E090E090930D0280931C
:100540000C0280910A0290910B028130910541F4D6
:1005500010920D0210920C0210920B0210920A02DD
:10056000809129028134D9F481E090E090930702D0
:1005700080930602809108029091090281309105D2
:1005800071F4109207021092060210920902109262
:10059000080280910102609100020E941101809185
:1005A00029028234D9F481E090E09093050280938F
:1005B000040280910202909103028130910571F44E
:1005C000109205021092040210920302109202028D
:1005D00080910102609100020E941101FF91EF9150
:1005E000BF91AF919F918F917F916F915F914F914B
:1005F0003F912F910F900BBE0F900FBE0F901F9049
:100600001895F8940E9448010E9438010E94B00099
:100610000E94F6000E94A300789408950E940103AE
:10062000C8E2D1E089E00E94C700809330028AE0EE
:100630000E94C70080932F028BE00E94C700809326
:100640001A028CE00E94C70080932A028DE00E946B
:10065000C7008093260280E00E94C70080932C028E
:1006600084E00E94C70080931C0285E00E94C700BE
:100670008093270286E00E94C70080931B0287E0D8
:100680000E94C7008093200288E00E94C7008093E8
:100690002D0285E00E94B5008093280286E00E942A
:1006A000B50080931D0287E00E94B500809324026C
:1006B00083E00E94C70080931F0282E00E94C7006F
:1006C0008093310281E00E94C700809321028881DB
:1006D00080932302888180932B02A4CFF894FFCFCC
:00000001FF
